:020000040800F2
:100000000010002001010008090100080B01000890
:100010000D0100080F010008110100080000000098
:1000200000000000000000000000000013010008B4
:1000300015010008000000001701000889260008CB
:100040001B0100081B0100081B0100081B01000820
:100050001B0100081B0100081B0100081B01000810
:100060001B0100081B0100081B0100081B01000800
:100070001B0100081B010008650200081B010008A5
:100080001B0100081B0100081B0100081B010008E0
:100090001B0100081B0100081B0100081B010008D0
:1000A0001B0100081B0100081B0100081B010008C0
:1000B0001B0100081B010008552700081B01000850
:1000C0001B0100081B0100081B0100081B010008A0
:1000D0001B0100081B0100081B0100081B01000890
:1000E0001B0100081B0100081B010008DFF80CD0F1
:1000F00000F07AF800480047812D00080010002029
:100100000648804706480047FEE7FEE7FEE7FEE7B1
:10011000FEE7FEE7FEE7FEE7FEE7FEE70D27000845
:10012000ED0000082DE9F05F0546002092469B4651
:1001300088460646814640241BE0284641464746FD
:10014000224600F020F853465A46C01A914110D377
:1001500011461846224600F038F82D1A67EB0108C0
:100160004F4622460120002100F02FF817EB00092E
:100170004E41201EA4F10104DFDC484631462A46E8
:100180004346BDE8F09F202A04DB203A21FA02F022
:100190000021704721FA02F3D040C2F120029140C1
:1001A000084319467047D2B201E000F8012B491EFE
:1001B000FBD270470022F6E710B513460A46044604
:1001C0001946FFF7F0FF204610BD202A04DB203A35
:1001D00000FA02F1002070479140C2F1200320FA9A
:1001E00003F3194390407047064C074D06E0E06862
:1001F00040F0010394E8070098471034AC42F6D36E
:10020000FFF778FF943B0008B43B000870B58C18EA
:1002100010F8015B15F0070301D110F8013B2A111A
:1002200006D110F8012B03E010F8016B01F8016B07
:100230005B1EF9D12B0705D40023521E0DD401F803
:10024000013BFAE710F8013BCB1A921C03E013F8CC
:10025000015B01F8015B521EF9D5A142D8D3002001
:1002600070BD0000014800F015B80000C007002074
:1002700010B5046863604368102B036803D099606D
:100280000068C26010BD9A600068C16010BD90F83F
:10029000210070472DE9F05FDFF860820446D8F84E
:1002A0000020DFF858B2954D944E944F0068DFF867
:1002B0004C92DFF848A20BF1080B1C35303644375E
:1002C0004FF400614FF4004C4FF4002E09F158092F
:1002D0000AF16C0A584501D1082316E0A84201D161
:1002E000802312E0B04201D10B460EE0B84201D1AA
:1002F00063460AE0484501D1734606E0504502D105
:100300004FF4000301E04FF000631A4231D002685D
:10031000D24312072DD4026822F00802026020683E
:10032000584501D1082114E0A84201D1802110E0F4
:10033000B0420ED0B84201D161460AE0484501D131
:10034000714606E0504502D14FF4000101E04FF044
:100350000061C8F80410606B40F001006063042085
:1003600084F82100002084F82000216B09B1204688
:1003700088476248D0F800C04FF4806120680A01C5
:100380000B044FF4802E584502D14FF0040816E0BC
:10039000A84202D14FF0400811E0B04201D1884696
:1003A0000DE0B84201D1904609E0484501D1F04640
:1003B00005E0504502D14FF4800800E098461CEA61
:1003C000080F33D0D0F800C06FEA0C0C5FEA4C7C09
:1003D0002CD4D0F800C05FEA8C6C05D4D0F800C0F3
:1003E0002CF0040CC0F800C02068584501D104214D
:1003F00013E0A84201D140210FE0B0420DD0B84235
:1004000001D1114609E0484501D1714605E050454A
:1004100002D14FF4800100E01946384841601120B4
:1004200084F82100E16A09B120468847334AD2F8AE
:1004300000C05B46206851154FF4005B4FF4003E4E
:10044000984202D14FF0020817E0A84202D14FF0C3
:10045000200812E0B04201D188460EE0B84201D136
:10046000D8460AE0484501D1F04606E0504502D1A1
:100470004FF4001801E04FF000781CEA080F3BD061
:10048000D0F800C06FEA0C0C5FEA8C7C34D4D0F852
:1004900000C05FEA8C6C05D4D0F800C02CF0020CD0
:1004A000C0F800C02068984201D1022114E0A8429F
:1004B00001D1202110E0B0420ED0B84201D15946FE
:1004C0000AE0484501D1714606E0504502D14FF49B
:1004D000001101E04FF000715160606B606301201A
:1004E00084F82100002084F82000A16A002903D0AC
:1004F0002046BDE8F05F0847BDE8F09F00000240DD
:1005000070B520B190F82110002411B103E0012052
:1005100070BD80F82040022180F8211003681A681D
:1005200043F6F0718A43D0E901152943D0E9035617
:10053000354329434569294385692943C5692943C9
:10054000114319604463012180F82110002070BD1F
:1005500070B5044690F82000012823D0012084F8CB
:100560002000022084F821002068056825F001059C
:1005700005602046FFF77CFE2068016841F002011B
:1005800001602068016841F0040101602068016891
:1005900041F0080101602068016841F0010101603B
:1005A000002070BD022070BD31B500F0EDF80446AA
:1005B00000F0EAF80099001B8842F9D338BD00002A
:1005C0002DE9F84FDFF890A100220AF1040B144640
:1005D00001274FF00F090BF1040E00BF0B6807FA5B
:1005E00004F52B40AB4274D1DFF870C14E68A6EB26
:1005F0000C0866452BD00DDC032E34D005DC36B359
:10060000012E19D0022E2FD11BE0112E16D0122E42
:100610002AD119E0B8F5881F19D006DCB8F5803F5B
:1006200015D0B8F5801F1FD111E0B8F5001F0ED00E
:10063000B8F5041F18D10AE0CA6815E0CA68121D8F
:1006400012E0CA6808320FE0CA680C320CE08A680F
:100650002AB1012A4FF0080203D0456104E00422C8
:1006600002E0056100E00022FF2B01D8064601E010
:1006700000F104064FEA840501D9A5F12005D6F85A
:1006800000C009FA05F82CEA080C02FA05F54CEA54
:10069000050CC6F800C04D68ED0057D5304DAE6969
:1006A00046F00106AE61AD6924F0030605F00105D0
:1006B00000952C4D06EB050CDCF80850A6074FEA18
:1006C000167809FA08F6B543274EB04202D1002643
:1006D00010E03BE0254EB04201D101260AE0244E55
:1006E000B04201D1022605E0224EB04201D10326DC
:1006F00000E0042606FA08F62E43CCF808604D68A0
:10070000DAF80060ED03554601D51E4300E09E4334
:100710002E604D68DBF80060AD035D4601D51E43D9
:1007200000E09E432E604D68DEF80060ED027546E5
:1007300001D51E4300E09E432E604D68AD020E4D74
:100740002E6801D51E4300E09E432E60641C102CD1
:10075000FFF444AFBDE8F88F000401400000111021
:10076000001002400000014000080140000C014060
:1007700000100140001401400C0401400AB1016165
:1007800070470904FBE7000001480068704700005B
:10079000000000207047000070B5040004D094F8F9
:1007A0003500002510B106E0012070BD84F83450FA
:1007B000204600F0E3FA242084F835002068016820
:1007C00021F00101016000F09BFC014628482268ED
:1007D000B1FBF0F05060274A6368934206D94FF4AA
:1007E000967358434FF47A73B0FBF3F02368401CC0
:1007F00018626068904208D84000B1FBF0F0C0F386
:100800000B01042916D2042014E0A26852B100EBB7
:10081000C00202EB0010B1FBF0F040F440400105D3
:1008200007D007E000EB4000B1FBF0F040F40040DF
:10083000F5E701202168C861D4E907010843216870
:100840000860D4E90310084321688860D4E90501F1
:1008500008432168C8602068016841F00101016017
:10086000A563202084F8350084F83650002070BD40
:1008700040420F00A08601002DE9FF4F044690F88A
:10088000350081B099468B460125202873D142F26C
:10089000107301224849204601F08AFB00286AD1E2
:1008A00094F83400012866D0012084F834002068D0
:1008B000016821F400610160242084F835000026DD
:1008C000A66320272068016841F4807101604B46CF
:1008D00000224FF00111204601F06AFB00285CD194
:1008E00021680BF0FE000861FFF74EFF216880468B
:1008F00048694969C0F3400094F83520C1F380216C
:100900004FF0A00A14E000BFB9F1000F05D0FFF7C7
:100910003BFFA0EB0801494501D984F835A02168C7
:1009200048694969C0F3400094F83520C1F380213B
:10093000084301D1A02AE7D184F8357020684169C5
:10094000C943890718D4016841F400710160206827
:1009500041698069009042F21073012216492046D5
:1009600001F026FBC8B984F8357084F834600020A3
:1009700005B0BDE8F08F1DE0016841F40071016031
:100980002068416921F48061416142F210730122C3
:100990000949204601F00CFB08B10320E8E728468E
:1009A00003996D1C88428DD384F8357084F83460C7
:1009B0000120DDE70220DBE70200100070470000A5
:1009C0002DE9F843044690F83500DDF820901E46E6
:1009D00015468846202878D1002D5ED0002E5CD0A8
:1009E00042F2107301226849204601F0E1FA002822
:1009F000F1D194F83400012867D0012084F8340044
:100A00002068016821F400610160222084F835002B
:100A1000102084F836000027A7634A464146204646
:100A200001F02FFA28B1A06B84F83470042834D078
:100A300072E0012E1AD02068DFF85081022E016882
:100A40002ED041F480610160206841698069009086
:100A5000032E74D8012E18D0022E2ED04B46002221
:100A60004146204601F0A4FA80BB42E020680168BC
:100A700021F48061016072B620684169816900914A
:100A8000016841F40071016062B64946204601F0F8
:100A900018FBE0B1A06B20283ED00120BDE8F88310
:100AA00041F40061016072B620684169816900917A
:100AB000016821F48061016062B64B460022414624
:100AC000204601F075FA08B905E05AE024E02068F4
:100AD000006928704CE072B62068016841F400712A
:100AE000016020680069287062B62068006968703B
:100AF0003EE02068016821F48061016072B62068E0
:100B0000006905F8010B761EB6B24B46002241463D
:100B1000204601F04DFA08B10320BFE720680168C4
:100B200041F4007101602068006905F8010B62B6AC
:100B30002068006905F8010BB61E15E0FFE749467D
:100B4000204601F0BEFA0028A4D12068006905F80B
:100B5000010B2168761EB6B24869C043400704D431
:100B6000086905F8010B761EB6B2002E7FF470AF4F
:100B7000202084F8350084F8367084F83470002022
:100B80008CE702208AE70000020010000400010048
:100B90002DE9F843044690F83500DDF820801D4625
:100BA0001746894620287BD1002F7AD0002D7ED091
:100BB00042F2107301224049204601F0F9F9002861
:100BC00077D194F83400012873D0012084F83400E0
:100BD0002068016821F400610160212084F835005B
:100BE000102084F836000026A66342464946204677
:100BF00001F0A4F928B1A06B84F83460042856D021
:100C00000BE020684169806900904146204601F070
:100C10008BFA28B1A06B042844D00320BDE8F883E8
:100C2000216817F8010B086120686D1EADB241699B
:100C3000C943490705D435B117F8011B01616D1E81
:100C4000ADB2002DE1D14546FFF79EFD804620273D
:100C500016E0204601F000F90028DBD1681C0FD017
:100C60002DB1FFF791FDA0EB0800A84208D9A06BB9
:100C700040F02001A16384F8357084F83460C9E73E
:100C800020684069C0434007E3D42068016841F40C
:100C90000071016084F8357084F834600020BDE78D
:100CA00007E004E02068016841F400710160012060
:100CB000B4E70220B2E70000020010002DE9F8437B
:100CC000044690F835001D461746884620284CD12A
:100CD0004FB145B142F2107301222549204601F07F
:100CE00067F9A0BB02E00120BDE8F88394F8340066
:100CF00001283AD0012084F834002068016821F4EA
:100D000000610160212084F83500102084F836004D
:100D10000026A663676225856585E16A15482B462E
:100D20008862E16A14480863226839461032E06A32
:100D3000FFF70EFC23224146204601F0FFF838B1B0
:100D4000A06B84F834600428CDD00320CCE70CE0FD
:100D50002068416841F40061416020684169806910
:100D6000009084F834600020BEE70220BCE7000059
:100D700002001000051E0008DB1D000830B5054606
:100D80000068194985B088422CD14FF4406000902A
:100D9000122001900320039069461448FFF710FCCD
:100DA0001348C16941F48001C161C069124C00F46B
:100DB000800004900F482060102060600020802197
:100DC000C4E9020120616061A0614FF44050E0611C
:100DD0002046FFF795FB18B1782108A001F071FFBC
:100DE000EC62656205B030BD00580040000C014067
:100DF0000010024044000240C00700202E2E2F5356
:100E000072632F73746D3332663178785F68616C0A
:100E10005F6D73702E63000002480168491C016019
:100E20007047000000000020074810B5016841F03D
:100E300010010160032000F087F8002000F006F8A0
:100E400000F016F8002010BD0020024010B5044646
:100E500000F050F94FF47A71B0FBF1F000F078FC3B
:100E600000222146501E00F04FF8002010BD000067
:100E70001D4808B5816941F001018161806900F078
:100E800001000090032000F05FF8002211466FF08F
:100E90000B0000F039F8002211466FF00A0000F054
:100EA00033F8002211466FF0090000F02DF80022FF
:100EB0001146501F00F028F800221146101F00F0C4
:100EC00023F800221146901E00F01EF80022114661
:100ED000501E00F019F80548416821F0E06141F02A
:100EE0000071416008BD0000001002400000014098
:100EF00000F01F02012191404009800000F1E02034
:100F0000C0F8001170470000F0B40E4B1B680C468F
:100F1000C3F30223C3F10705042D00D90425191DCD
:100F2000072901D2002300E0DB1E012606FA05F1A5
:100F3000491E214099409E40761E16403143F0BC28
:100F400001F024BA0CED00E0064900F00702086841
:100F50004FF6FF03184040EA0220034A104308609E
:100F6000704700000CED00E00000FA052DE9F047A5
:100F7000DFF8708105460E46D8F8000000F0070043
:100F8000B0420CD2D8F8001021F007013143C8F864
:100F90000010D8F8000000F00700B04277D12878A0
:100FA000514C800705D56068A96820F0F00008431F
:100FB00060602878C00759D06968012001290DD0E8
:100FC000022929D05FF0020393FAA3F2B2FA82F267
:100FD00042F02002520904D0226803E04FF40033AB
:100FE000F2E7626A93FAA3F3B3FA83F303F01F0301
:100FF000984002424BD0606820F0030008436060D4
:10100000FFF7C2FB6968074641F2883001290DD01D
:101010000229814617D025E04FF00073D4E700BFC6
:10102000FFF7B2FBC11B494501D918E08146606852
:10103000C0F381000128F3D118E000BFFFF7A4FB43
:10104000C11B49450BD86068C0F381000228F5D167
:101050000CE000BFFFF798FBC11B494502D90320F4
:10106000BDE8F087606810F00C0FF3D1D8F80010DD
:10107000404601F00701B1420BD9016821F0070198
:1010800031430160006800F00700B04201D0012048
:10109000E6E72878400705D56068E96820F4E06055
:1010A000084360602878000706D56068296920F445
:1010B000605040EAC100606000F03AF86168F022D8
:1010C00092FAA2F201F0F001B2FA82F2D140074A9C
:1010D000515CC840064908600020FFF7B7FE0020B9
:1010E000BEE7000000200240001002409E330008CE
:1010F0000400002001480068704700000400002040
:1011000008480949006849684FF4E06292FAA2F27F
:1011100001F4E061B2FA82F2D140044A515CC84065
:10112000704700000400002000100240AE330008A9
:1011300010B519A385B00FCB8DE80F001AA01B4B7B
:10114000006804905A681A4802F00C0104291DD066
:1011500008291BD14FF4701494FAA4F402F470110E
:10116000B4FA84F4E140D2031DF8011010D55A6896
:101170004FF4003393FAA3F302F40032B3FA83F38B
:10118000DA4004AB9A5CB0FBF2F0484305B010BD06
:1011900008484843FAE70000020304050607080967
:1011A0000A0B0C0D0E0F101001020000001002407F
:1011B00000127A0000093D002DE9F84F044600783E
:1011C000F74DC0074FF0010625D068687704C0F3DB
:1011D0008100012807D06868C0F3810002281BD174
:1011E0006868C00318D597FAA7F0B0FA80F040F00D
:1011F0002000400901D0286800E0686A97FAA7F14A
:10120000B1FA81F101F01F0106FA01F108425ED046
:10121000606800287CD05AE06068B0F5803F0BD051
:1012200010B1B0F5A02F11D0286820F480302860CC
:10123000286820F4802002E0286840F4803028608C
:10124000606828B3FFF7A0FA80460BE0286840F4F6
:1012500080202860F0E700BFFFF796FAA0EB0800B7
:10126000642871D897FAA7F0B0FA80F040F0200017
:10127000400901D0286800E0686A97FAA7F1B1FA3E
:1012800081F101F01F0106FA01F10842E4D01EE0ED
:10129000FFF77AFA804605E0FFF776FAA0EB080040
:1012A0006428DED897FAA7F0B0FA80F040F020006A
:1012B000400901D0286800E0686A97FAA7F1B1FAFE
:1012C00081F101F01F0106FA01F10842E4D1207812
:1012D000DFF8D08280074FF000094FF002075BD59E
:1012E00068684FF0F80B10F00C0F07D06868C0F377
:1012F000810002281CD16868C00319D497FAA7F0AE
:10130000B0FA80F040F02000400902D0286801E0E7
:101310008BE0686A97FAA7F1B1FA81F101F01F0139
:1013200006FA01F108422CD0206901287DD128E07D
:10133000206990B396FAA6F0B0FA80F048F82060E1
:10134000FFF722FA824607E011E100BFFFF71CFA1F
:10135000A0EB0A00022884D897FAA7F0B0FA80F030
:1013600040F02000400901D0286800E0686A97FA40
:10137000A7F1B1FA81F101F01F0106FA01F108426B
:10138000E4D028689BFAABF26169B2FA82F220F0ED
:10139000F80091400843286025E0FFE796FAA6F19F
:1013A000B1FA81F148F82190FFF7EEF9824605E0A5
:1013B000FFF7EAF9A0EB0A000228CCD897FAA7F0C9
:1013C000B0FA80F040F02000400901D0286800E029
:1013D000686A97FAA7F1B1FA81F101F01F0106FAE4
:1013E00001F10842E4D1207800076ED5A069B8B3B6
:1013F00096FAA6F0B0FA80F008EB8000C0F880649E
:10140000FFF7C2F9824605E0FFF7BEF9A0EB0A003C
:101410000228A0D897FAA7F0B0FA80F040F0600058
:10142000B6EB501F02D128680CE062E197FAA7F0F2
:10143000B0FA80F040F06000B7EB501F01D1286A8D
:1014400000E0686A97FAA7F1B1FA81F101F01F0193
:1014500006FA01F21042D7D00120FFF7A5F834E0D8
:10146000FFE796FAA6F1B1FA81F108EB8101C1F824
:101470008094FFF789F9824606E000BFFFF784F900
:10148000A0EB0A00022872D897FAA7F0B0FA80F011
:1014900040F06000B6EB501F01D128680BE097FACE
:1014A000A7F0B0FA80F040F06000B7EB501F01D118
:1014B000286A00E0686A97FAA7F1B1FA81F101F0B1
:1014C0001F0106FA01F21042D8D12078400765D5F5
:1014D000E86940F08050E861E869DFF8CCB000F0DE
:1014E00080500090DBF8001041F48071CBF80010C0
:1014F000FFF74AF9824605E0FFF746F9A0EB0A003C
:10150000642834D8DBF80000C005F5D5E068012870
:101510000AD008B1052813D0286A20F001002862FB
:10152000286A20F0040002E0286A40F001002862E6
:10153000E06841F2883B90B3FFF726F982460BE062
:10154000286A40F004002862EEE700BFFFF71CF9AC
:10155000A0EB0A0159450AD897FAA7F0B0FA80F033
:1015600040F04000B6EB501F02D128680CE0A3E029
:1015700097FAA7F0B0FA80F040F04000B7EB501FA8
:1015800001D1286A00E0686A97FAA7F1B1FA81F1FF
:1015900001F01F0206FA02F10842D7D031E005E05F
:1015A000001002400000424200700040FFF7ECF8DB
:1015B000824605E0FFF7E8F8A0EB0A0159457BD821
:1015C00097FAA7F0B0FA80F040F04000B6EB501F59
:1015D00001D128680BE097FAA7F0B0FA80F040F04C
:1015E0004000B7EB501F01D1286A00E0686A97FA03
:1015F000A7F1B1FA81F101F01F0206FA02F10842E7
:10160000D8D1E06980B36968C1F38101022970D043
:101610004FF080714F000228484609D091FAA1F19D
:10162000B1FA81F148F82100FFF7AEF8044669E00D
:101630008A4691FAA1F1B1FA81F1C14648F8210038
:10164000FFF7A2F8804605E0FFF79EF8A0EB080040
:10165000022854D897FAA7F0B0FA80F040F02000A2
:10166000400902D0286801E061E0686A97FAA7F1B2
:10167000B1FA81F101F01F0106FA01F10842E3D14C
:10168000206AB0F5803F05D16868A16820F4003079
:1016900008436860D4E908010843696821F47411BB
:1016A000084368609AFAAAF0B0FA80F049F820601E
:1016B000FFF76AF8044606E021E000BFFFF764F890
:1016C000001B02281BD897FAA7F0B0FA80F040F070
:1016D0002000400901D0286800E0686A97FAA7F165
:1016E000B1FA81F101F01F0106FA01F10842E5D0DB
:1016F0001DE01EE0FFF748F8001B022802D9032076
:10170000BDE8F88F97FAA7F0B0FA80F040F020001B
:10171000400901D0286800E0686A97FAA7F1B1FA99
:1017200081F101F01F0106FA01F10842E2D1002027
:10173000E6E70120E4E74FF0E0210428086903D040
:1017400020F004000861704740F00400FAE7704799
:1017500010B5401EB0F1807F01D3012010BD4FF0C5
:10176000E02460610F21601700F010FE0020A061EE
:1017700007202061002010BD10B5FFF7E8FF10BD65
:101780007047704730B590F83820012A20D00122E8
:1017900080F83820022380F8393003685C6824F030
:1017A00070045C6003685C680D682C435C600368CF
:1017B0009C6824F080049C6003689C6849680C4322
:1017C0009C6080F83920002180F83810084630BD30
:1017D000022030BD2DE9F0410D46040003D094F8FD
:1017E000390018B108E00120BDE8F081002084F83C
:1017F0003800204600F039F8022084F839002068CB
:10180000816821F007018160211D206801F032F913
:10181000226890689169166A2B68AF69034340F2A9
:101820000330814341EA0721A868EF6908434FF676
:10183000FC418843E96840EA0720014328692F6A90
:10184000000140EA0730084369686D6926F0AA067E
:1018500046EA051529439360226890612068016279
:10186000012084F839000020BEE7704710B5044617
:10187000006891B1042904D00122002101F02CF963
:10188000206801225FF0040101F026F92068016858
:1018900041F001010160002010BD01220021F3E7A9
:1018A000704700002DE9F041044690F838000D46DD
:1018B00001283DD0012684F83860022084F83900E0
:1018C000AAB3042A46D02068082A55D0D5E90027B3
:1018D000E968036A23F480530362D0F81CC0036AEA
:1018E0002CF4407C4CEA07274FF6FF7C27F4704726
:1018F0000CEA013139434FF4204723F4204307EA2F
:1019000002321A43C16102622068C16921F4406158
:10191000C1612068C169AA6841EA0221C0F81C10AF
:1019200084F83960002084F83800BDE8F08101E0D7
:101930000220FAE7D5E90012EB68206801F07AF995
:101940002068816921F00C01816120688169AA68A1
:1019500011430FE0D5E90012EB68206801F096F919
:101960002068816921F44061816120688169AA68E9
:1019700041EA02218161D3E7D5E9002C2F7B016A7E
:1019800021F480710162C169036A21F0030141EA17
:101990000C0121F0F00C39074FF420674CEA11617B
:1019A00023F4206307EA02221A43C161026220681D
:1019B000C16921F00C01C1612068C169AA681143A5
:1019C000ACE710B5040003D094F8390010B107E07B
:1019D000012010BD002084F83800204600F00CF8EB
:1019E000022084F83900211D206801F043F801200D
:1019F00084F83900002010BD00B50068104985B09A
:101A000088421BD10F48C16941F00401C161C0691E
:101A1000694600F0040004904FF4E070009000204C
:101A20000190012002900848FEF7CAFD00221146ED
:101A30001E20FFF769FA1E20FFF75AFA05B000BD15
:101A40000008004000100240000C014010B5026880
:101A5000044631B1042908D0082915D00C2908D131
:101A600016E0D06840F0020002E0D06840F00400C8
:101A7000D0600122206801F02FF82068016841F051
:101A800001010160002010BDD06840F00800EFE7C0
:101A9000D06840F01000EBE770B5044600680169BB
:101AA0004FF00005C943890715D4C168C9438907A8
:101AB00011D4E91E01610120207620688069800729
:101AC000204602D0FFF7ECFE04E000F0B3F8204619
:101AD00000F080F9257620680169C943490717D4C9
:101AE000C168C943490713D46FF0040101610220A2
:101AF00020762068806910F4407F204602D0FFF7EE
:101B0000CFFE04E000F096F8204600F063F9257659
:101B100020680169C943090716D4C168C943090788
:101B200012D46FF008010161042020762068C0699A
:101B30008007204602D0FFF7B3FE04E000F07AF8F9
:101B4000204600F047F9257620680169C943C90697
:101B500017D4C168C943C90613D46FF010010161DD
:101B6000082020762068C06910F4407F204602D00B
:101B7000FFF796FE04E000F05DF8204600F02AF939
:101B8000257620680169C943C90708D1C168C943DE
:101B9000C90704D1891E0161204600F01CF92068A4
:101BA0000169C943090609D4C168C943090605D4B6
:101BB0006FF0800101612046FFF7E2FD20680169B6
:101BC000C943490609D4C168C943490605D46FF021
:101BD00040010161204600F0FFF820680169C94317
:101BE00089060BD4C168C943890607D46FF0200168
:101BF00001612046BDE87040FFF7C3BD70BD000025
:101C00001FB50068094988420FD1094C00224021C4
:101C10002046FEF7B3FD40200090022001900320F3
:101C2000039069462046FEF7CBFC1FBD0004004030
:101C300000080140704770B50D46040003D094F8C9
:101C4000390010B107E0012070BD002084F8380091
:101C5000204600F015F8022084F83900211D206884
:101C600000F008FF2068016821F008010160206889
:101C7000016829430160012084F83900002070BD0B
:101C800008B50068B0F1804F08D10548C16941F03E
:101C90000101C161C06900F00100009008BD0000B1
:101CA0000010024070B5044690F838000D46012837
:101CB0000DD0012684F83860022084F8390042B142
:101CC000042A18D0082A2AD00C2A4DD139E0022043
:101CD00070BD206800F00CFF2068816941F00801A8
:101CE00081612068816921F0040181612068816936
:101CF0002A69114311E0206800F022FF2068816901
:101D000041F4006181612068816921F48061816111
:101D1000206881692A6941EA0221816124E0206802
:101D200000F03AFF2068C16941F00801C1612068F4
:101D3000C16921F00401C1612068C1692A691143A8
:101D400011E0206800F054FF2068C16941F400618F
:101D5000C1612068C16921F48061C1612068C169E5
:101D60002A6941EA0221C16184F83960002084F8BF
:101D7000380070BD10B5040003D094F8390010B1DC
:101D800007E0012010BD002084F83800204600F054
:101D90000DF8022084F83900211D206800F06AFE49
:101DA000012084F83900002010BD000008B500684B
:101DB0000649884208D10648C16941F00201C16163
:101DC000C06900F00200009008BD0000000400405F
:101DD0000010024070477047704710B5406A0168B4
:101DE0000A6822F480620A6000214185202280F87E
:101DF000352080F83610816B41F010018163FEF7C9
:101E0000C9FC10BD10B5446A2323002211492046A5
:101E100000F0CEF818B1A06B40F02000A06320685D
:101E2000016841F4007101602068416821F400619B
:101E3000416000206085202184F8351084F8360048
:101E4000A06B0028204602D0FEF7A4FC10BDFEF7D0
:101E5000B5FD10BD0400010001684A69D243520576
:101E60000DD44A6922F480624A61042181632021F1
:101E700080F83510002180F83410012070470020D0
:101E800070472DE9F843044600680D469146016805
:101E900041F4806101602068016841F48071016053
:101EA00013464FF0011700223946204600F080F813
:101EB00098BB206907F10108B0F5804F10D00620CB
:101EC000216800EAD51646F0F00008614A46F91D7F
:101ED000204600F0B2F838B1A06B04282CD01CE0EA
:101EE000E8B240F001001DE02168E8B208614A460E
:101EF0004146204600F0A1F80028EDD12068416954
:101F000081690091016841F4807101604B460022B3
:101F10003946204600F04CF810B10320BDE8F883A4
:101F200046F0F100216808614A464146204600F02B
:101F300084F80028D0D1F1E70120EFE770B504461E
:101F400000680D461646016841F480710160134631
:101F500000224FF00111204600F02AF898B92069BC
:101F6000B0F5804F11D00620216800EAD51040F06E
:101F7000F000086132460D49204600F05EF838B1A5
:101F8000A06B042810D0032070BD05F0FE0000E017
:101F9000E8B22168086105493246891F204600F0F1
:101FA0004CF80028ECD170BD012070BD0800010084
:101FB0002DE9F05F1E4690460C460546FEF7E4FB11
:101FC00081464FF0000A4FF0200BC4F30747B8F1E9
:101FD000000F09D024E0701C06D0D6B1FEF7D4FB68
:101FE000A0EB0900B04214D82868012F06D0806900
:101FF00024EA00000004000C1BD0ECE74069F7E77E
:10200000701C0DD02EB1FEF7BFFBA0EB0900B04253
:1020100006D985F835B085F834A00320BDE8F09FD7
:102020002868012F07D0806924EA00000004000C12
:10203000E6D00020F2E74069F6E72DE9F047914647
:102040000D460446FEF7A0FB824600274FF020080D
:10205000C5F3074629E020684069C043400512D413
:102060002068016841F4007101602068416921F431
:10207000806141610420A06384F8358084F8347065
:102080000120BDE8F087B9F1FF3F0ED0B9F1000F94
:1020900005D0FEF779FBA0EB0A01494505D984F884
:1020A000358084F834700320EBE72068012E06D0D9
:1020B000806925EA00000004000CE2D0CBE740690B
:1020C000F7E72DE9F04188460446FEF75DFB002561
:1020D0000646202721E04169C943C9060BD441695E
:1020E00021F010014161A56384F8357084F8345003
:1020F0000120BDE8F081B8F1000F04D0FEF744FBE9
:10210000811B414509D954F8380F40F0200044F8AC
:102110000409677025700320EBE720684169C94313
:102120004906D8D40020E4E770B50D460446FEF712
:102130002BFB064619E02046FFF78EFE08B1012072
:1021400070BD681C11D025B1FEF71EFB801BA84294
:102150000BD954F8380F40F0200044F8040920202F
:10216000607000202070032070BD20684069C0436B
:102170000006E0D4002070BD2DE9F0433A4885B058
:10218000816941F010018161816901F010010491C0
:10219000816941F020018161816901F02001049190
:1021A000816941F004018161816901F004010491B8
:1021B000816941F00801816180692C4F00F00800BD
:1021C0004FF400540490002221463846FEF7D6FA18
:1021D000DFF89C90002280214846FEF7CFFADFF816
:1021E0009480002202214046FEF7C8FA00940124A0
:1021F00002256946384603950194FEF7E1F94FF44C
:1022000040400326CDE9000669463846FEF7D8F976
:1022100049F63F60CDE9000669464846FEF7D0F929
:102220008020CDE90004694603954846FEF7C8F9C9
:102230004FF23D20CDE9000669464046FEF7C0F961
:10224000CDE90054694640460395FEF7B9F92002EE
:1022500000900020CDE9010469464846FEF7B0F938
:1022600005B0BDE8F08300000010024000100140FE
:1022700000080140000C01400B4810B509490160FD
:102280000A49416000214FF480428160C0E9031295
:1022900041618161C1610162FEF77EFA002800D0D0
:1022A000FEE710BD0058004080050020801A06009F
:1022B00010B518488AB016490024C0E900149121CD
:1022C000C0E902410461FFF755FD00B1FEE70821B6
:1022D0001048FFF7B0FC00B1FEE7079407A90D48CE
:1022E0000894FFF74FFA00B1FEE77020009001203C
:1022F000CDE901040022694606480494FFF7D2FCA8
:1023000000B1FEE70348FFF77BFC0AB010BD0000F8
:1023100000040040F805002070B51B4890B0194932
:102320000024C0E900140821C0E902410461FFF75C
:1023300048FB00B1FEE70125CDE90054CDE9025488
:102340000F260496CDE90545CDE9074669460E48B6
:10235000FFF740FA00B1FEE70D940DA90A480E946C
:10236000FFF710FA00B1FEE7CDE90945CDE90B46CC
:10237000082209A90448FFF795FA002800D0FEE7D3
:1023800010B070BD00080040340600200907090E97
:10239000002806DA00F00F0000F1E02080F8141D9C
:1023A000704700F1E02080F80014704730B1FF2240
:1023B00003484FF480610068FDF7F5BE0022F7E79F
:1023C00074050020014A1080518070477805002074
:1023D00010B500F0BDFF4FF47A7305227821514803
:1023E000FEF74AFA08B1002010BD40F6C210401EA8
:1023F000FDD1AE220021782000F0B0FF2022002184
:10240000782000F0ABFF10220021782000F0A6FF1A
:10241000B0220021782000F0A1FFC82200217820FE
:1024200000F09CFF00221146782000F097FF102258
:102430000021782000F092FF40220021782000F057
:102440008DFF81220021782000F088FFFF220021EB
:10245000782000F083FFA1220021782000F07EFF89
:10246000A6220021782000F079FFA8220021782000
:1024700000F074FF3F220021782000F06FFFA422BB
:102480000021782000F06AFFD3220021782000F09C
:1024900065FF00221146782000F060FFD522002160
:1024A000782000F05BFFF0220021782000F056FF3A
:1024B000D9220021782000F051FF2222002178202B
:1024C00000F04CFFDA220021782000F047FF1222B2
:1024D0000021782000F042FFDB220021782000F06C
:1024E0003DFF20220021782000F038FF8D220021BE
:1024F000782000F033FF14220021782000F02EFF16
:10250000AF220021782000F029FF0020FFF74EFFC6
:1025100000F0A0F8044800210180418001214171B0
:10252000084610BD80050020780500202DE9F04305
:102530004A78DFF86890801AC5B24868022202EB38
:102540008502845AB9F80200A9F10402C608B9F854
:1025500000303046176814E01A460AE0D1F808C087
:1025600002EBC0181CF804C0641C07F808C0A4B231
:10257000521CD1F804C01CF825C09C449445EDDCE5
:10258000401C0A7832448242E6DC486810F8250094
:102590001844401CA9F80000BDE8F083780500202D
:1025A0002DE9F0434A78DFF87C90801AC5B248687C
:1025B000022202EB8502845AB9F80200A9F1040252
:1025C000C608B9F80030304617681AE01A4610E01D
:1025D000D1F808C01CF804C0641CA4B2BCF1000F00
:1025E0001CD04FF0000C00BF02EBC018521C07F8C3
:1025F00008C0D1F804C01CF825C09C449445E7DC11
:10260000401C0A7832448242E0DC486810F8251009
:102610001944491CA9F80010BDE8F0834FF0010CE3
:10262000E2E700007805002030B50D46044622B9E7
:102630000BE02946FFF77AFF641C20780028F8D1C8
:1026400006E02946FFF7ACFF641C20780028F8D18B
:10265000C0B230BD0A4910B5402008700A4640F2A9
:10266000014378210748FEF729FB064C02E00120D0
:10267000FDF79AFFE06AFDF70AFE0128F7D110BDC9
:10268000F80700208005002010B5FEF7C5FBFFF716
:1026900073F803480168002901D0491C016010BD8E
:1026A0004000002030B58FB001210804CDE90010B2
:1026B0000024029402250491CDE907504FF4E01064
:1026C00009906846FEF778FD00B1FEE70F20CDE9DE
:1026D0000A054FF48060CDE90C4002210AA80E944F
:1026E000FEF744FC00B1FEE7FEF704FD4FF47A71FB
:1026F000B0FBF1F0FFF72CF80420FFF71CF80022E4
:102700001146501EFEF700FC0FB030BD0D480168A9
:1027100041F00101016041680B4A114041600168CC
:102720000A4A11400160016821F48021016041687A
:1027300021F4FE0141604FF41F0181600449C00390
:1027400008607047001002400000FFF8FFFFF6FE2F
:1027500008ED00E02DE9F05FB74D286908B10127C9
:1027600000E00027D5F8000200264FF001090028FC
:1027700004D0B24801788F4201D0077015E1B04C07
:10278000B04AB24823688021DFF8BCE2DFF8C0B26B
:10279000DFF8C0A21278DFF8C08200682D2B7ED04F
:1027A00010DC1B2B44D006DC142B16D0192B21D0A7
:1027B0001A2BE3D132E01E2B57D0232BDED0282B4F
:1027C000DCD161E02E3B0B2BD8D2DFE803F076851D
:1027D00097EEBEEEEEEEEEC9DB00A04B0220C5F890
:1027E000806118600AB1704601E09748001D0160E1
:1027F000182052E0016841F001010160D8F80000A2
:10280000401CC8F8000000F09DFC002805D01A20EC
:10281000206093484FF400510161C6E0016841F027
:1028200001010160D8F80000401CC8F8000010E069
:10283000016841F001010160D8F80010491CC8F896
:102840000010DBF800000844401E20F00101814226
:1028500002D000F0D9FBA8E000F05AFC002873D0A9
:10286000D8F80010CAF8001045E0016841F00101F5
:102870000160D8F80000401CC8F8000000F048FCD7
:102880000028EDD191E00AE00AB1704601E06E48FF
:10289000001D01602D20C5F88091206085E0016851
:1028A00041F001010160D8F80000401EC8F80000A6
:1028B00000F048FC08B32E20EFE7016841F0010169
:1028C0000160D8F80000401EC8F80000DBF80010D6
:1028D00088426AD82F20E0E7D8F8001041B101689B
:1028E00041F001010160D8F80000401EC8F8000066
:1028F00000F00EFC08B100F0F5F956E0016841F077
:1029000001010160D8F80020521EC8F80020DBF851
:102910000000824249D1DFF84CC1534BDCE904414D
:10292000D3E90003201859410B0243EA10610A441D
:10293000C8F80020DAF8003020F07F401944CAF8C7
:102940000010CCE9040630E02DE00AB1704601E049
:102950003D48001D016036202060C5F8806124E0FC
:10296000016841F001010160D8F80000401CC8F87E
:10297000000000F0E7FBC0B139494FF40050086196
:1029800038208AE7016841F001010160D8F80000B1
:10299000401CC8F80000DAF80020DBF80010511ADB
:1029A00081423FF644AF1E2077E7D5F80C0220B3F2
:1029B0002C48C66001686FB1491E016020492B4B4D
:1029C0002A4A0C68083B182C0BD0232C04D0362C38
:1029D0002CD113E0491CF0E720490220091D0860B2
:1029E00024E019240C601E4946604FF400504861F1
:1029F000C2F800901E60C5F8809117E037240C6083
:102A0000174C4FF400516161D0E90114A14208D282
:102A1000144C183434F81140641C1460491C416093
:102A200001E0C2F800901E60C5F88091BDE8F05F3B
:102A30000F48FFF731B80000000001427804002081
:102A4000180000200800002010080140F8050020B0
:102A500028000020140000200C000020100C014071
:102A60000010014080040020500000202C0800408D
:102A700034060020F0B50268144B154C154D4FF08C
:102A80008047984205D0B84203D0A04201D0A84266
:102A900003D122F070064A683243984205D0B8420A
:102AA00003D0A04201D0A84203D122F44074CA68E6
:102AB000224302608A68C2620A688262984201D137
:102AC0000969016301214161F0BD0000002C014052
:102AD000000400400008004010B50123046A8B4048
:102AE0009C430462036A8A401343036210BD0000E2
:102AF00030B5026A22F001020262026A4368846908
:102B000024F073050C682C4322F002058A682A43DE
:102B10000A4DA8420BD122F00805CA6823F440737D
:102B20002A434D6922F004021D438B692B43436005
:102B3000846149684163026230BD0000002C01409D
:102B400030B5026A22F010020262026A43688469A8
:102B50000D6824F4E64444EA05248D6822F020023E
:102B600042EA05120B4DA8420ED1CD6822F0800238
:102B700042EA05124D6923F4406343EA85038D69F7
:102B800022F0400243EA850343608461496881631F
:102B9000026230BD002C014030B5026A22F480721E
:102BA0000262036A4268C46923F4007324F0730567
:102BB0000C682C438D6843EA05230C4DA8420ED1C6
:102BC000CD6823F4006343EA05234D6922F44052A3
:102BD00042EA05128D6923F4806342EA05124260DD
:102BE000C4614968C163036230BD0000002C01402C
:102BF00030B5026A22F480520262046A4268C369F4
:102C00000D6823F4E64343EA05238D6824F4005459
:102C100044EA0534064DA84204D14D6922F48042AD
:102C200042EA85124260C36149680164046230BDB2
:102C3000002C014070B5046A24F001040462846928
:102C4000056A0F4EB04208D0B0F1804F05D00D4E4E
:102C5000B04202D00C4EB04203D124F0030414431E
:102C600001E044F001041A0724F0F00444EA12627F
:102C700025F00A0301F00A0119438261016270BD67
:102C8000002C0140000400400008004030B5046AF8
:102C900024F0100404628469056A24F4407444EA50
:102CA000022222F470444FF6FF7202EA03322243FA
:102CB000A02425F0A00304EA0111194382610162F6
:102CC00030BDFEE702E008C8121F08C1002AFAD191
:102CD00070477047002001E001C1121F002AFBD19C
:102CE000704700000B490020C1F880010A480078B5
:102CF00018B10A494FF47A6008600948017881F0F8
:102D0000010101700749012008600749232008607C
:102D1000704700000000014209000020240000204C
:102D20000800002034000020180000207CB5054673
:102D3000F0208DF8040055208DF805004FF48054E4
:102D4000022301AAA42128460094FDF721FF80B99F
:102D50006420FDF729FCFB208DF8040000208DF88D
:102D60000500022301AAA42128460094FDF710FFC4
:102D700008B101207CBD6420FDF716FC00207CBD5D
:102D800008B5FEF751F8FFF78DFCFFF7F5F9944809
:102D9000416941F0010141614069002200F00100F8
:102DA000009011460E20FEF7AFF80E20FEF7A0F8B7
:102DB000FFF7B2FAFFF77CFAFFF75EFA89484FF0A7
:102DC00080410025C0E900159121C0E90251082188
:102DD0000561FEF730FF00B1FEE7FFF7F9FA00F0FA
:102DE00025FA40F6C210401EFDD17E483C38FFF760
:102DF0009DFF7D48012606607A487830006845626C
:102E0000784804217830FEF731FD76480821783083
:102E1000FEF71CFE00B1FEE77448056074480068C8
:102E2000744C00F4807074496063E0634FF40050A8
:102E30000861DFF8B09141F6E25B09F1B40904F1F1
:102E4000500A6E4F00F0F6F899F80010654801EB53
:102E5000410109EB81013C38891C00F09DF9A07803
:102E600094F801C00AEB401351465A7CBCF1000FA4
:102E700008D0D4F81C80B8F1000F03D14FF004083B
:102E8000C7F80080D7F80080B8F1010F45D0B8F13D
:102E9000020F7ED0B8F1040F03D0B8F1080F0BD1A8
:102EA00036E0E368B3B1BCF1000F06D0E06900285A
:102EB00003DD4FF0FF30E06175E05149022008600A
:102EC0005946401C8842FCD3606808B1282069E05C
:102ED000322067E00A232361431C08E001EB431C16
:102EE0009CF811C0944501D1A37049E05B1C212BD3
:102EF000F4DBE36A012B56D0002306E001EB431C10
:102F00009CF811C09445EFD05B1C8342F6DB4AE08D
:102F1000207880F00100207032E020690A2802D079
:102F20002E2840D133E01A6812B336483449C0F82D
:102F3000805102200860207800284FF0800002D0E5
:102F40002B49083101E02A490C310860594602201A
:102F5000401C8842FCD365600023E56018464FF0B2
:102F600061612264FDF7DEF8C4E91201182019E05E
:102F70001A79002001EB40135B7C934203D1A070CF
:102F8000E66210E005E0401C2128F3DB0BE0302076
:102F900008E020691A2802D0302804D101E01B2063
:102FA00000E02E2020613D60D4E90101884201D07B
:102FB000E662A060D4E90801884201D0E66260625E
:102FC000D4E90401884202D0E662606103E0E06A6D
:102FD00001287FF437AF00F029F9E56232E70000FD
:102FE00000100240BC0500202004004010080040F2
:102FF00008080140080000200010014000400020A7
:10300000100C01400000014207480849084B0068C5
:103010000A6810444FF0FF3202EB10621A6020F091
:103020007F40086070470000480000207C040020BA
:103030002C080040F0B533480068012300F480718B
:103040003148426B914202D0C0E90D13F0BD826B52
:10305000142AFBD92C4C86692C4D246B4FF4FA7E34
:10306000322E2ED00CDC0A2E1AD03224142E1BD075
:103070001E2E23D0282EE9D1C90540D58461F0BD8C
:1030800000274FF00A0C3C2E21D0462E29D0502E7E
:1030900030D05A2EF3D1EB60C0F818C08763F0BD72
:1030A000C905FCD4142128E0C90501D5846100E0DC
:1030B0000263016B7145F2D91E211EE028212B60AD
:1030C0001BE0FA2C01D2462117E03C2115E07445A3
:1030D00001D2AB6000E06B608763C0F818C0076383
:1030E000F0BDC90503D50263962AEED8F0BD502184
:1030F000846202E0C90502D55A218161F0BD0263F4
:10310000F0BD00000808014008000020000008226F
:103110000949086868B1401E086008494FF0FF324D
:1031200051F8201002EB1161054A116001D0002016
:10313000704701207047000028000020BC040020D8
:103140002C08004030B510490E4A114D08684FF068
:10315000FF3452F820300D4A12689A4208D83228BB
:1031600006D0401C086004EB13602860002030BDCE
:10317000084804EB1261296022F07F4101600120C0
:1031800030BD0000BC0400202800002048000020C2
:103190002C0800407C0400207FB5064600200C4629
:1031A0008DF80C004FF48055012303AAA42130466A
:1031B0000095FDF7EDFC50B90120FDF7F5F9062368
:1031C00001AAA42130460095FDF7FAFB10B10520B5
:1031D00004B070BD9DF8040020809DF8050060805B
:1031E0009DF809009DF80610C0F3810040EA8100B7
:1031F000A0809DF809009DF80710C0F3011040EA77
:103200008100E0809DF808009DF80910800040EAE8
:10321000911020819DF80900C0F34000A0729DF834
:10322000090000F00100E0720020D1E73EB5002067
:10323000FFF7BCF800210846FFF7C4F8394C3A49BB
:103240002078002852D00220FFF770F9354DA07881
:10325000503505EB4010012234490B30FFF7E4F9FB
:10326000A078012205EB401030491830FFF7DCF957
:1032700000217020FFF7A6F86946206900F07EF86B
:1032800001222A49FFF7D0F910214420FFF79AF8CC
:103290006946A06800F072F801222449FFF7C4F9DA
:1032A00020214420FFF78EF86946606A00F066F836
:1032B00001221E49FFF7B8F910210020FFF782F81C
:1032C000A078012205EB40101949401DFFF7ACF929
:1032D00030210020FFF776F8A07805EB4010807FC2
:1032E00030B1012808D002280BD117E00120ABE74C
:1032F00001220E490FA002E001220C490FA0FFF7A6
:1033000093F9607838B100216020FFF75BF8074936
:103310004120FFF70BF9FFF79DF93EBD012203495C
:1033200008A0ECE708000020E8380008843800080E
:10333000883B000872616469616C0000666C616EB4
:103340006B000000696E6372656D656E74616C0080
:103350000148401EFDD1704790D003001CB50223E8
:103360008DF804100A2100918DF80520014601AA6C
:103370000148FDF70DFC1CBD8005002000230A223A
:1033800001F80A3FB0FBF2F302FB1303B0FBF2F0CB
:10339000303301F8013D0028F4D1084670470000A1
:1033A00000000000000001020304060708090000F5
:1033B0000000010203040008F80601010106F801FB
:1033C0000608080806010202FF00000F040201813E
:1033D00041221C0C0A090808080804020121215294
:1033E0008C020408080804038040300806FF00012E
:1033F000010101010F013F2111111121C102040836
:1034000008080403FC2211111122C403040808084F
:10341000040301010101C139070000000E01000091
:103420008C52212121528C030408080804033C42D9
:1034300081818142FC020408080804030000C0B036
:103440008C838CB0C000000C030000000000000062
:10345000030CFF2121212121528C0F0808080808A4
:103460000403F8060201010101020608010604082E
:10347000080808040601FF01010101010206F80F16
:103480000808080808040601FF2121212121210143
:103490000F08080808080808FF212121212121011F
:1034A0000F00000000000000F80602010101414287
:1034B00046C80106040808080804060FFF2020205B
:1034C000202020FF0F0000000000000FFF0F000071
:1034D000000000FF070808080807FF2050880402C2
:1034E00001000F00000001020408FF0000000000BE
:1034F000000F080808080808FF0C30C000C0300C96
:10350000FF0F000000030000000FFF06186080009E
:10351000FF0F00000001060FF80602010101010281
:1035200006F801060408080808040601FF414141A5
:103530004141221C0F00000000000000F8060201BB
:103540000101010206F80106040808090A040E1127
:10355000FF4141414141A21C000F0000000000005A
:1035600007080C12212121212142840204080808A5
:103570000808040301010101FF010101010000002D
:10358000000F00000000FF000000000000FF030427
:10359000080808080403030C30C0000000C0300C09
:1035A0000300000000030C0300000000031C608007
:1035B0000080700E70800080601C03000000010E0F
:1035C00001000000010E01000000010204089060EB
:1035D000900804020108040201000000010204082E
:1035E0000102040810E010080402010000000000BD
:1035F0000F000000000001018141211905030C0AA0
:10360000090808080808108888888888F0000708D2
:10361000080808080708FF1008080810E00F040849
:1036200008080403E010080808102003040808082C
:103630000402E01008080810FF0304080808040F3B
:10364000E09088888890E0030408080804020808CD
:10365000FE090900000F0000E01008080810F80338
:1036600084888888443FFF1008080810E00F000095
:103670000000000FF90F00F9807FFF80C0201008C4
:10368000000F000001020408FF0FF810080810E006
:1036900010080810E00F000000000F000000000FED
:1036A000F81008080810E00F00000000000FE010FC
:1036B00008080810E003040808080403F8100808C4
:1036C0000810E0FF040808080403E01008080810C8
:1036D000F8030408080804FFF81008080F000000A9
:1036E0007088888888100408080808070808FF08F8
:1036F000080000070800F80000000000F8030408B4
:103700000808040F186080008060180000010E0196
:10371000000038C00000C038C00000C03800010EF2
:1037200003000000030E010008304080403008080C
:103730000601000106081860800080601880807112
:103740000E0100000808884828180C0A0908080813
:10375000011000000000000007100200031010001C
:103760000710160007102400071032000710400051
:1037700007104E0007105C0007106A000710780061
:103780000000000000000000000000000000000039
:103790000000000000000000000000000B10860088
:1037A00008109C000A10AC000910C0000810D200DC
:1037B0000810E2000A10F2000810060101101601BC
:1037C00006101801081024010710340109104201E5
:1037D000071054010A106201081076010A108601D0
:1037E00009109A010910AC010910BE010810D0019E
:1037F0000B10E0010F10F6010B1014020B102A023F
:10380000081040020000000000000000000000005E
:10381000000000000000000000000000081050023E
:103820000710600207106E0207107C0207108A0260
:10383000051098020710A2020710B0020110BE0284
:103840000210C0020710C4020110D2020B10D402F1
:103850000710EA020710F802071006030710140306
:103860000410220306102A03051036030710400334
:1038700007104E030B105C03071072030710800340
:1038800006108E03022E7A0250370008B633000865
:103890000000F0FF3F031FFFF8C00000787F3F0FDC
:1038A0000E0E0E0F0F7F7E7080C0E0F0B89080800B
:1038B00080808080800103070F1D09010101010143
:1038C00001018080808080808090B8F0E0C080011D
:1038D000010101010101091D0F0703010C0F000087
:1038E0000D0F18000D0F320002000202DC38000834
:1038F00090380008000000000000070707E0F8FE0D
:103900001E0703030303071EFEF8E03FFFFFC0008E
:103910000000000000C0FFFF3F0000030307060691
:1039200006060703030000303030383CFFFFFF007D
:1039300000000000FFFFFF00000000000707073045
:103940003C3E0E0703030303078FFEFCF80080C014
:10395000E0E070381C1C0E0703010006070707068D
:10396000060606060606060606181C1E0F070303B3
:10397000038387FEFE7800C0C0C0800003030303FA
:10398000078FFEFCF800010307070606060607037B
:103990000301000000000080E0F0781EFFFFFF0040
:1039A000000070787C6F6763606060FFFFFF60609D
:1039B0006000000000000000000007070700000092
:1039C00000E0FFFF9FC3C3C3C3C383830300C0C31F
:1039D000C38301010000000183FFFF7C0001030796
:1039E00007060606060703030100E0F8FC3E8F8782
:1039F00083838387071E1C183FFFFFC30301010158
:103A0000010387FFFE7C0000010307070606060787
:103A100003030100030303030303030383E3FF7FA3
:103A20001F070000000000E0F8FE3F070100000053
:103A30000000000407070300000000000000007CF5
:103A4000FEFEC783030383C7FEFE7C00F0F8FC8FF5
:103A50000707030307078FFCF8F0000103070706B9
:103A60000606060707030100F0FCFE0E070303032A
:103A700007071EFCF8E0C1C3C7070E0C0C0C0C8E28
:103A8000E6FFFF3F000103070706060607070301DD
:103A90000000FFFFFF030303030303030303030308
:103AA000FFFFFF03030303030303030303000707ED
:103AB00007000000000000000000000003030303F3
:103AC0000303FFFFFF0303030303030000000000E1
:103AD00000FFFFFF000000000000000000000000E9
:103AE00007070700000000000000031300000000AB
:103AF00000000E130900081333000E134B000E13C1
:103B000075000F139F000E13CC000E13F6000E135A
:103B100020010E134A010E13740100000000000082
:103B20000000000000000000000000000000000095
:103B30000000000000000000000000000000000085
:103B4000000000000000000000000E139E010000B5
:103B50000000000000000000000000000000000065
:103B60000000000000000000000000000000000055
:103B70000000000000000000000000000000000045
:103B800000000F13C8010000032E5402EA3A000897
:103B9000F4380008B43B0008000000208005000055
:103BA0000C020008003E000880050020843A000056
:103BB000D42C0008510410A24A049A0A041AFF01E6
:103BC0000133121225302E3530536D6D2C2E3334C7
:103BD000067430313312099C312E30203B363520AB
:103BE0002332363201138004AA32202B312E1A2BB5
:103BF0002E305342021A0613A9604A39400B203373
:103C0000376061531446592001111A2DC07A324091
:103C10000211141A32200B183138202A3C20197452
:103C20000916202A4B200A1832201A64200B18305B
:103C300039202A962019CD0916202AE1200A1834A5
:103C40002021432E2E0B15757020530A544940F144
:103C500015333333077C312E32E01C0A2E37AC117A
:103C6000452E3033311D49922405208A37201C31DE
:103C70002E311A19921993411380049D322E30303F
:103C8000201A32CD1C2E303513511A12C0290D695D
:103C9000602A3339752E3031331A0C209960392C53
:103CA00019206A3240C9E002120A4A1EE004127466
:103CB000706915442291098B323720E21E1CD96CA1
:103CC000362019B109152015040281083A32EB0992
:103CD0001320152E97CB070B173232201C582C16A9
:103CE0002039CB09132015ED76BB060B173139208F
:103CF0001C83C160200A17382015AD56AB050A1881
:103D000031C015D7EBF5040A1831C01C02814020E0
:103D10000918C049E5422E437570091220B10211FD
:103D20000A12BC28210801420172019D01C401E868
:103D30000109022802460262027D029602AF02C712
:103D400002DE02F4025610B3F753E315DD24061128
:103D500009A9670E63D1B50C35EE7F0B826A940A10
:103D6000F5A0D90981CD400965C2C0083B7453084C
:103D700005B9F4075897A107EBDE57070FE91507B8
:103D80001C70DA068974A406AA2A7306E1ED4506BA
:103D90007E371C061998F505A3B2D105B138B005D8
:103DA000A4E790057F86730526E457050DD63D05EB
:103DB0001D372505D9E60D05A5C8F70436C3E2046D
:103DC00017C0CE0440ABBB04C872A904980698047F
:103DD00034588704845A7704AD016804E9425904D1
:103DE00067144B04316D3D04144530048C94230456
:103DF000AE5417041D7F0B04F90D1404F90782203B
:04000005080000ED02
:00000001FF
